:100000000C946E000C94E1010C948B000C948B000A
:100010000C948B000C948B000C948B000C948B0034
:100020000C948B000C948B000C948B000C948B0024
:100030000C948B000C948B000C948B000C948B0014
:100040000C948B000C948B000C948B000C948B0004
:100050000C948B000C948B000C948B000C948B00F4
:100060000C948B000C948B000403090412036F00A2
:1000700062006400650076002E00610074001403C5
:100080004C0045004400430074006C0048004900E7
:1000900044001201100100000008C016DF05000135
:1000A000010200010902220001010080140904007C
:1000B00000010300000009210101000122160007D0
:1000C0000581030800640600FF0901A1011500264F
:1000D000FF00750895010900B20201C011241FBE7E
:1000E000CFEFD4E0DEBFCDBF11E0A0E0B1E0E6EF9E
:1000F000FEE002C005900D92A830B107D9F711E0DB
:10010000A8E0B1E001C01D92A038B107E1F70E945C
:1001100076040C9479070C9400001F93162F2091FD
:10012000550124FF07C02091560138E8232720936A
:10013000560103C02AE520935501212FDC01E7E594
:10014000F1E08D91819321501216DCF387E591E067
:10015000612F0E94DD011C5F109355011F910895CE
:100160001F93CF93DF9380916601835087FDA4C0D6
:1001700090916301209162012D3209F09BC088307B
:1001800009F098C0CCE0D0E0C91BD109C659DE4FB8
:1001900083EC80934A018AE5809300011092080164
:1001A0008881807621F0CE010E9444037AC09A8132
:1001B000109253018981882331F41092540123E570
:1001C00031E082E06AC0853019F49093670162C023
:1001D000863009F049C08B81813019F482E990E0C2
:1001E0001AC0823041F484EA90E0909365018093D4
:1001F000640182E235C08330F1F4992341F488E64A
:1002000090E0909365018093640184E029C091306F
:1002100041F48CE690E0909365018093640182E163
:100220001FC09230E1F48EE790E0909365018093D7
:10023000640184E115C0813241F486EB90E0909333
:1002400065018093640189E00BC0823241F486EC41
:1002500090E0909365018093640186E101C080E0A5
:1002600090E4909308011DC0883069F0893019F43A
:10027000909369010FC08A3049F08B3059F48BE4B8
:100280008093560107C029E631E002C023E531E042
:1002900081E003C023E531E080E0309365012093E5
:1002A00064019F81992321F49E81981708F4892F76
:1002B00080930101109266018091000184FF4DC07E
:1002C000809101018F3F09F448C0182F893008F050
:1002D00018E0811B8093010180914A0198E88927E9
:1002E00080934A01112361F180916401909165012D
:1002F00030910801212F215036FF0EC030E0A901B6
:10030000445B5E4FFC01ABE4B1E064916D933196C8
:10031000A417B507D1F70CC0DC0130E0A901445B9C
:100320005E4FEBE4F1E06D916193E417F507D9F7C7
:100330002F5F3F4F280F391F3093650120936401D1
:100340008BE491E0612F0E94DD011C5F1C3019F0ED
:100350008FEF809301011093000184E199B19471B2
:1003600031F48150D9F71092670110926101DF9149
:10037000CF911F910895E9E6F0E08081826080834B
:10038000E89A8BE4809356018AE58093550108959D
:10039000A82FB92F80E090E041E050EA609530E06E
:1003A00009C02D9182279795879510F0842795276E
:1003B000305EC8F36F5FA8F30895EADF8D939D93D5
:1003C0000895CF93CFB7CF93DF93C3954C9BE9F7B5
:1003D0004C9B0BC04C9B09C04C9B07C04C9B05C061
:1003E0004C9B03C04C9B01C08BC06F93C0916301B9
:1003F000DD27C659DE4F2F9365E54C9B03C02F9137
:100400006F91E6CF0F931F934F9320E040E15F93EE
:1004100009B1047104FB27F93F9350E03BE039C078
:10042000147140642F77012F5F5F1EC0406819B1BF
:1004300014712F7752501FC0406409B12F77047197
:10044000D1F15F5F00C023C0406219B12F771471F2
:1004500091F15F5F00C025C004711027515012F464
:100460005D5F0000115027952C3F19B1C8F614713B
:100470000127015027952C3FC8F64227499309B11F
:10048000047110274F73115027952C3FA8F64695FD
:10049000469519B1147179F00127015027952C3F29
:1004A00098F66B5A60F3315009B1B0F600C011E014
:1004B0001CBB002719C03B503195C31BD04011E035
:1004C0001CBB0881033C09F10B34F9F02091610158
:1004D0001981110F1213EDCF4A81441F093651F1D2
:1004E0000D3211F0013E29F7009368013F915F91B1
:1004F0004F911F910F912F916F91CCB3C0FD65CF9C
:10050000DF91CF91CFBFCF91189520916801222321
:1005100069F310916601112391F5343092F1309313
:10052000660120936201109163013BE0311B30931F
:10053000630127C00091660101300CF50AE54F7098
:1005400049F43091000134FD1DC000930001CAE45C
:10055000D1E01CC03091550134FD14C00093550109
:10056000C6E5D1E013C0052710E000C000000BB9BC
:100570001AC0052710E0221F1DC010E021C04AE567
:1005800002C032ED432FC4E1D0E032E01AB1146171
:100590005C9A0BB11AB954E120E865E320FF052706
:1005A0000BB9279517951C3FF0F66695B8F7B1F78C
:1005B00020FF05270BB9279517951C3FD0F62795E7
:1005C000179517FF052700001C3F0BB9B0F62991BE
:1005D0003A9519F70B7E10916701110FC651D04063
:1005E0000BB911F01093610111E01CBB00611AB14D
:1005F0001B7E402F4B7E54E05A95F1F70BB91AB988
:100600004BB974CF90917C00907E90937C00909138
:100610007C00982B90937C0080917A00806480937A
:100620007A0080917A0084FFFCCF80917A0080610B
:1006300080937A002091780030917900C901089563
:10064000229A219A409A419A429A439A449A459A08
:10065000289A5F9A089580E480937C0083E08093D9
:100660007A0080917A00806880937A0080917A0085
:10067000806480937A0080917A0086FDFCCF80911F
:100680007800909179000895EF92FF920F931F9355
:10069000CF93DF938C01DC018C918076803409F05C
:1006A0001DC111968C911197843049F412968C914A
:1006B000129780FF02C0289A11C128980FC1853077
:1006C00041F4F801828180FF02C02A9A07C12A986A
:1006D00005C1863051F4D80112968C91129780FF93
:1006E00002C0299AFBC02998F9C0823061F485B113
:1006F00081708093490189E491E090936501809332
:10070000640181E0ECC0833061F480E00E94020368
:1007100000D000D000D0EDB7FEB73196C9E3D1E0EC
:10072000C1C0873009F093C0C9E2D1E000D000D049
:1007300000D0EDB7FEB73196ADB7BEB71296DC93D9
:10074000CE93119782E0E82E81E0F82EF382E282C8
:10075000158214820E949804EDB7FEB736960FB644
:10076000F894FEBF0FBEEDBFD80112968C91129780
:100770008330C9F0843028F4813079F0823080F4FD
:1007800009C0853021F18530F8F0863019F18730C5
:10079000D9F523C0309954C022C0319951C01FC02F
:1007A00032994EC01CC033994BC000D000D000D04D
:1007B000EDB7FEB73196ADB7BEB71296DC93CE93C8
:1007C0001197F382E2821BC034993AC008C0359970
:1007D00037C005C0189934C002C04F9931C000D04D
:1007E00000D000D0EDB7FEB73196ADB7BEB71296C8
:1007F000DC93CE93119782E091E09383828381E032
:1008000090E09583848312C000D000D000D0EDB773
:10081000FEB73196ADB7BEB71296DC93CE93119763
:1008200082E091E093838283158214820E9498046F
:10083000EDB7FEB736960FB6F894FEBF0FBEEDBF0C
:1008400089E291E0909365018093640145C088300E
:10085000A1F40E942B038FE39CE90197F1F700C0FC
:10086000000080E00E94020300D000D000D0EDB76D
:10087000FEB73196C9E1D1E015C0893079F50E9403
:100880002B038FE39CE90197F1F700C0000081E0A2
:100890000E94020300D000D000D0EDB7FEB7319621
:1008A000C9E0D1E0ADB7BEB71296DC93CE931197F5
:1008B00022E031E033832283958384830E9498046D
:1008C000D0936501C0936401EDB7FEB736960FB6BD
:1008D000F894FEBF0FBEEDBF80E101C080E0DF9164
:1008E000CF911F910F91FF90EF9008950E942003E8
:1008F0002EE088E190E00FB6F894A8958093600010
:100900000FBE209360000E94BB01549A80E007C094
:10091000A895EFE9FFE03197F1F700C000008150A2
:10092000B9F75498299A7894A8950E94B000FCCF02
:10093000AEE0B0E0EEE9F4E00C9450070D891E89BA
:1009400086E08C831A8309838FEF9FE79E838D83D4
:100950009E01275E3F4FCE0101966F89788DA901D8
:100960000E94BB04EF81F885E00FF11F10822E96E4
:10097000E4E00C946C07ACE0B0E0E1ECF4E00C9443
:1009800042076C011B018A01FC01178216828381D8
:1009900081FFD1C12E010894411C511CF6019381A5
:1009A000F10193FD859193FF81911F01882309F443
:1009B000BEC1853239F493FD859193FF81911F016A
:1009C000853229F490E0B6010E94B806E7CFEE2404
:1009D000FF2420E02032B0F48B3269F08C3228F40E
:1009E000803251F0833271F40BC08D3239F0803394
:1009F00049F421602CC02260246029C0286027C0EF
:100A0000206125C027FD2CC0382F30533A3098F490
:100A100026FF08C08E2D880FE82EEE0CEE0CE80E97
:100A2000E30E15C08F2D880FF82EFF0CFF0CF80E6B
:100A3000F30E20620CC08E3221F426FD78C12064B2
:100A400006C08C3611F4206802C0883649F4F101E2
:100A500093FD859193FF81911F01882309F0BACFFF
:100A6000982F9554933018F09052933028F40C5FDF
:100A70001F4FFFE3F9830DC0833631F0833771F0E8
:100A8000833509F060C022C0F801808189830E5F40
:100A90001F4F420171E0A72EB12C16C062E0662EF6
:100AA000712C600E711EF8018080918026FF03C0BA
:100AB0006E2D70E002C06FEF7FEFC4012C870E94A3
:100AC000AD065C0183012C852F7717C052E0652E9F
:100AD000712C600E711EF8018080918026FF03C08A
:100AE0006E2D70E002C06FEF7FEFC4012C870E9473
:100AF000A2065C012C852068830123FD20C008C06C
:100B000080E290E0B6012C870E94B806FA942C850A
:100B10008F2D90E0A816B90698F311C0F40127FDB7
:100B2000859127FF81914F0190E0B6012C870E94AB
:100B3000B8062C85F110FA940894A108B108A11404
:100B4000B10461F7F1C0843611F0893649F527FF09
:100B500008C0F80160817181828193810C5F1F4F11
:100B600009C0F80160817181882777FD8095982FF1
:100B70000E5F1F4F4FE6B42EB22297FF09C090952B
:100B80008095709561957F4F8F4F9F4FF0E8BF2AFA
:100B9000A2012AE030E00E94E406782E741845C0D5
:100BA000853731F43FEEB32EB2222AE030E025C083
:100BB00099EFB92EB2228F36C1F0803720F48835F4
:100BC00009F0B5C00DC0803721F0883709F0AFC0FB
:100BD00002C020E1B22AB4FE0BC084E0B82A08C0EB
:100BE000B4FE09C0E6E0BE2A06C028E030E005C039
:100BF00020E130E002C020E132E0B7FE08C0F80199
:100C000060817181828193810C5F1F4F07C0F80161
:100C10006081718180E090E00E5F1F4FA2010E9411
:100C2000E406782E7418FFE7BF22B6FE0BC02EEF45
:100C3000B2227E1438F4B4FE07C0B2FC05C08FEEB9
:100C4000B82202C0A72C01C0AE2C8B2D90E0B4FEC0
:100C50000DC0FE01E70DF11D2081203319F4E9EEEE
:100C6000BE2209C0A394B2FE06C004C0867890706C
:100C7000009709F0A3948B2C9924B3FC14C0B0FE08
:100C80000FC0AF1428F4E72CEF0CEA18AF2C08C003
:100C9000E72C06C080E290E0B6010E94B806A3945B
:100CA000AF14C0F304C0AF1410F4FA1801C0FF244D
:100CB00084FE0FC080E390E0B6010E94B80682FE79
:100CC0001FC081FE03C088E590E010C088E790E077
:100CD0000DC0C40186789070009791F081FC02C02D
:100CE00080E201C08BE2B7FC8DE290E0B6010E9489
:100CF000B80606C080E390E0B6010E94B806EA9408
:100D00007E14C0F37A94F201E70DF11D808190E02A
:100D1000B6010E94B8067720A9F706C080E290E0ED
:100D2000B6010E94B806FA94FF20C1F737CEF6014B
:100D30002681378102C02FEF3FEFC9012C96E2E1F7
:100D40000C945E07FC010590615070400110D8F7CB
:100D5000809590958E0F9F1F0895FC016150704003
:100D600001900110D8F7809590958E0F9F1F0895E0
:100D70000F931F93CF93DF938C01EB018B8181FF46
:100D80001BC082FF0DC02E813F818C819D81281761
:100D9000390764F4E881F9810193F983E88306C097
:100DA000E885F985802F0995009731F48E819F8120
:100DB00001969F838E8302C00FEF1FEFC801DF9162
:100DC000CF911F910F910895FA01AA27283051F170
:100DD000203181F1E8946F936E7F6E5F7F4F8F4F6C
:100DE0009F4FAF4FB1E03ED0B4E03CD0670F781FCB
:100DF000891F9A1FA11D680F791F8A1F911DA11DB0
:100E00006A0F711D811D911DA11D20D009F46894E8
:100E10003F912AE0269F11243019305D3193DEF690
:100E2000CF010895462F4770405D4193B3E00FD046
:100E3000C9F7F6CF462F4F70405D4A3318F0495D31
:100E400031FD4052419302D0A9F7EACFB4E0A69514
:100E50009795879577956795BA95C9F70097610536
:100E6000710508959B01AC010A2E0694579547958C
:100E700037952795BA95C9F7620F731F841F951F81
:100E8000A01D08952F923F924F925F926F927F9292
:100E90008F929F92AF92BF92CF92DF92EF92FF928A
:100EA0000F931F93CF93DF93CDB7DEB7CA1BDB0B36
:100EB0000FB6F894DEBF0FBECDBF09942A883988DB
:100EC00048885F846E847D848C849B84AA84B984E2
:100ED000C884DF80EE80FD800C811B81AA81B981EE
:100EE000CE0FD11D0FB6F894DEBF0FBECDBFED0102
:060EF0000895F894FFCF05
:080EF6005AFF256420202000B2
:00000001FF
